{
  "_format": "hh-sol-artifact-1",
  "contractName": "MintNFT",
  "sourceName": "contracts/MintNFT.sol",
  "abi": [
    {
      "inputs": [],
      "stateMutability": "nonpayable",
      "type": "constructor"
    },
    {
      "anonymous": false,
      "inputs": [
        {
          "indexed": true,
          "internalType": "address",
          "name": "owner",
          "type": "address"
        },
        {
          "indexed": true,
          "internalType": "address",
          "name": "approved",
          "type": "address"
        },
        {
          "indexed": true,
          "internalType": "uint256",
          "name": "tokenId",
          "type": "uint256"
        }
      ],
      "name": "Approval",
      "type": "event"
    },
    {
      "anonymous": false,
      "inputs": [
        {
          "indexed": true,
          "internalType": "address",
          "name": "owner",
          "type": "address"
        },
        {
          "indexed": true,
          "internalType": "address",
          "name": "operator",
          "type": "address"
        },
        {
          "indexed": false,
          "internalType": "bool",
          "name": "approved",
          "type": "bool"
        }
      ],
      "name": "ApprovalForAll",
      "type": "event"
    },
    {
      "anonymous": false,
      "inputs": [
        {
          "indexed": true,
          "internalType": "address",
          "name": "previousOwner",
          "type": "address"
        },
        {
          "indexed": true,
          "internalType": "address",
          "name": "newOwner",
          "type": "address"
        }
      ],
      "name": "OwnershipTransferred",
      "type": "event"
    },
    {
      "anonymous": false,
      "inputs": [
        {
          "indexed": true,
          "internalType": "address",
          "name": "from",
          "type": "address"
        },
        {
          "indexed": true,
          "internalType": "address",
          "name": "to",
          "type": "address"
        },
        {
          "indexed": true,
          "internalType": "uint256",
          "name": "tokenId",
          "type": "uint256"
        }
      ],
      "name": "Transfer",
      "type": "event"
    },
    {
      "inputs": [
        {
          "internalType": "address",
          "name": "to",
          "type": "address"
        },
        {
          "internalType": "uint256",
          "name": "tokenId",
          "type": "uint256"
        }
      ],
      "name": "approve",
      "outputs": [],
      "stateMutability": "nonpayable",
      "type": "function"
    },
    {
      "inputs": [
        {
          "internalType": "address",
          "name": "owner",
          "type": "address"
        }
      ],
      "name": "balanceOf",
      "outputs": [
        {
          "internalType": "uint256",
          "name": "",
          "type": "uint256"
        }
      ],
      "stateMutability": "view",
      "type": "function"
    },
    {
      "inputs": [],
      "name": "getAlltoken",
      "outputs": [
        {
          "components": [
            {
              "internalType": "uint256",
              "name": "id",
              "type": "uint256"
            },
            {
              "internalType": "string",
              "name": "uri",
              "type": "string"
            }
          ],
          "internalType": "struct MintNFT.RenderToken[]",
          "name": "",
          "type": "tuple[]"
        }
      ],
      "stateMutability": "view",
      "type": "function"
    },
    {
      "inputs": [
        {
          "internalType": "uint256",
          "name": "tokenId",
          "type": "uint256"
        }
      ],
      "name": "getApproved",
      "outputs": [
        {
          "internalType": "address",
          "name": "",
          "type": "address"
        }
      ],
      "stateMutability": "view",
      "type": "function"
    },
    {
      "inputs": [
        {
          "internalType": "address",
          "name": "owner",
          "type": "address"
        },
        {
          "internalType": "address",
          "name": "operator",
          "type": "address"
        }
      ],
      "name": "isApprovedForAll",
      "outputs": [
        {
          "internalType": "bool",
          "name": "",
          "type": "bool"
        }
      ],
      "stateMutability": "view",
      "type": "function"
    },
    {
      "inputs": [
        {
          "internalType": "string",
          "name": "_uri",
          "type": "string"
        }
      ],
      "name": "mint",
      "outputs": [
        {
          "internalType": "uint256",
          "name": "",
          "type": "uint256"
        }
      ],
      "stateMutability": "nonpayable",
      "type": "function"
    },
    {
      "inputs": [],
      "name": "name",
      "outputs": [
        {
          "internalType": "string",
          "name": "",
          "type": "string"
        }
      ],
      "stateMutability": "view",
      "type": "function"
    },
    {
      "inputs": [],
      "name": "owner",
      "outputs": [
        {
          "internalType": "address",
          "name": "",
          "type": "address"
        }
      ],
      "stateMutability": "view",
      "type": "function"
    },
    {
      "inputs": [
        {
          "internalType": "uint256",
          "name": "tokenId",
          "type": "uint256"
        }
      ],
      "name": "ownerOf",
      "outputs": [
        {
          "internalType": "address",
          "name": "",
          "type": "address"
        }
      ],
      "stateMutability": "view",
      "type": "function"
    },
    {
      "inputs": [],
      "name": "renounceOwnership",
      "outputs": [],
      "stateMutability": "nonpayable",
      "type": "function"
    },
    {
      "inputs": [
        {
          "internalType": "address",
          "name": "from",
          "type": "address"
        },
        {
          "internalType": "address",
          "name": "to",
          "type": "address"
        },
        {
          "internalType": "uint256",
          "name": "tokenId",
          "type": "uint256"
        }
      ],
      "name": "safeTransferFrom",
      "outputs": [],
      "stateMutability": "nonpayable",
      "type": "function"
    },
    {
      "inputs": [
        {
          "internalType": "address",
          "name": "from",
          "type": "address"
        },
        {
          "internalType": "address",
          "name": "to",
          "type": "address"
        },
        {
          "internalType": "uint256",
          "name": "tokenId",
          "type": "uint256"
        },
        {
          "internalType": "bytes",
          "name": "_data",
          "type": "bytes"
        }
      ],
      "name": "safeTransferFrom",
      "outputs": [],
      "stateMutability": "nonpayable",
      "type": "function"
    },
    {
      "inputs": [
        {
          "internalType": "address",
          "name": "operator",
          "type": "address"
        },
        {
          "internalType": "bool",
          "name": "approved",
          "type": "bool"
        }
      ],
      "name": "setApprovalForAll",
      "outputs": [],
      "stateMutability": "nonpayable",
      "type": "function"
    },
    {
      "inputs": [
        {
          "internalType": "bytes4",
          "name": "interfaceId",
          "type": "bytes4"
        }
      ],
      "name": "supportsInterface",
      "outputs": [
        {
          "internalType": "bool",
          "name": "",
          "type": "bool"
        }
      ],
      "stateMutability": "view",
      "type": "function"
    },
    {
      "inputs": [],
      "name": "symbol",
      "outputs": [
        {
          "internalType": "string",
          "name": "",
          "type": "string"
        }
      ],
      "stateMutability": "view",
      "type": "function"
    },
    {
      "inputs": [
        {
          "internalType": "uint256",
          "name": "tokenId",
          "type": "uint256"
        }
      ],
      "name": "tokenURI",
      "outputs": [
        {
          "internalType": "string",
          "name": "",
          "type": "string"
        }
      ],
      "stateMutability": "view",
      "type": "function"
    },
    {
      "inputs": [
        {
          "internalType": "address",
          "name": "from",
          "type": "address"
        },
        {
          "internalType": "address",
          "name": "to",
          "type": "address"
        },
        {
          "internalType": "uint256",
          "name": "tokenId",
          "type": "uint256"
        }
      ],
      "name": "transferFrom",
      "outputs": [],
      "stateMutability": "nonpayable",
      "type": "function"
    },
    {
      "inputs": [
        {
          "internalType": "address",
          "name": "newOwner",
          "type": "address"
        }
      ],
      "name": "transferOwnership",
      "outputs": [],
      "stateMutability": "nonpayable",
      "type": "function"
    }
  ],
  "bytecode": "0x60806040523480156200001157600080fd5b506040518060400160405280600781526020017f4d696e744e4654000000000000000000000000000000000000000000000000008152506040518060400160405280600481526020017f4d494e5400000000000000000000000000000000000000000000000000000000815250816000908051906020019062000096929190620001a6565b508060019080519060200190620000af929190620001a6565b505050620000d2620000c6620000d860201b60201c565b620000e060201b60201c565b620002bb565b600033905090565b6000600660009054906101000a900473ffffffffffffffffffffffffffffffffffffffff16905081600660006101000a81548173ffffffffffffffffffffffffffffffffffffffff021916908373ffffffffffffffffffffffffffffffffffffffff1602179055508173ffffffffffffffffffffffffffffffffffffffff168173ffffffffffffffffffffffffffffffffffffffff167f8be0079c531659141344cd1fd0a4f28419497f9722a3daafe3b4186f6b6457e060405160405180910390a35050565b828054620001b49062000256565b90600052602060002090601f016020900481019282620001d8576000855562000224565b82601f10620001f357805160ff191683800117855562000224565b8280016001018555821562000224579182015b828111156200022357825182559160200191906001019062000206565b5b50905062000233919062000237565b5090565b5b808211156200025257600081600090555060010162000238565b5090565b600060028204905060018216806200026f57607f821691505b602082108114156200028657620002856200028c565b5b50919050565b7f4e487b7100000000000000000000000000000000000000000000000000000000600052602260045260246000fd5b612cf280620002cb6000396000f3fe608060405234801561001057600080fd5b50600436106101165760003560e01c8063715018a6116100a2578063b88d4fde11610071578063b88d4fde146102cd578063c87b56dd146102e9578063d85d3d2714610319578063e985e9c514610349578063f2fde38b1461037957610116565b8063715018a61461026b5780638da5cb5b1461027557806395d89b4114610293578063a22cb465146102b157610116565b806323b872dd116100e957806323b872dd146101b557806328904431146101d157806342842e0e146101ef5780636352211e1461020b57806370a082311461023b57610116565b806301ffc9a71461011b57806306fdde031461014b578063081812fc14610169578063095ea7b314610199575b600080fd5b61013560048036038101906101309190611d21565b610395565b6040516101429190612243565b60405180910390f35b610153610477565b604051610160919061225e565b60405180910390f35b610183600480360381019061017e9190611db4565b610509565b60405161019091906121ba565b60405180910390f35b6101b360048036038101906101ae9190611ce5565b61058e565b005b6101cf60048036038101906101ca9190611bdf565b6106a6565b005b6101d9610706565b6040516101e69190612221565b60405180910390f35b61020960048036038101906102049190611bdf565b610830565b005b61022560048036038101906102209190611db4565b610850565b60405161023291906121ba565b60405180910390f35b61025560048036038101906102509190611b7a565b610902565b6040516102629190612480565b60405180910390f35b6102736109ba565b005b61027d610a42565b60405161028a91906121ba565b60405180910390f35b61029b610a6c565b6040516102a8919061225e565b60405180910390f35b6102cb60048036038101906102c69190611ca9565b610afe565b005b6102e760048036038101906102e29190611c2e565b610b14565b005b61030360048036038101906102fe9190611db4565b610b76565b604051610310919061225e565b60405180910390f35b610333600480360381019061032e9190611d73565b610c69565b6040516103409190612480565b60405180910390f35b610363600480360381019061035e9190611ba3565b610c9f565b6040516103709190612243565b60405180910390f35b610393600480360381019061038e9190611b7a565b610d33565b005b60007f80ac58cd000000000000000000000000000000000000000000000000000000007bffffffffffffffffffffffffffffffffffffffffffffffffffffffff1916827bffffffffffffffffffffffffffffffffffffffffffffffffffffffff1916148061046057507f5b5e139f000000000000000000000000000000000000000000000000000000007bffffffffffffffffffffffffffffffffffffffffffffffffffffffff1916827bffffffffffffffffffffffffffffffffffffffffffffffffffffffff1916145b80610470575061046f82610e2b565b5b9050919050565b606060008054610486906126e4565b80601f01602080910402602001604051908101604052809291908181526020018280546104b2906126e4565b80156104ff5780601f106104d4576101008083540402835291602001916104ff565b820191906000526020600020905b8154815290600101906020018083116104e257829003601f168201915b5050505050905090565b600061051482610e95565b610553576040517f08c379a000000000000000000000000000000000000000000000000000000000815260040161054a906123e0565b60405180910390fd5b6004600083815260200190815260200160002060009054906101000a900473ffffffffffffffffffffffffffffffffffffffff169050919050565b600061059982610850565b90508073ffffffffffffffffffffffffffffffffffffffff168373ffffffffffffffffffffffffffffffffffffffff16141561060a576040517f08c379a000000000000000000000000000000000000000000000000000000000815260040161060190612420565b60405180910390fd5b8073ffffffffffffffffffffffffffffffffffffffff16610629610f01565b73ffffffffffffffffffffffffffffffffffffffff161480610658575061065781610652610f01565b610c9f565b5b610697576040517f08c379a000000000000000000000000000000000000000000000000000000000815260040161068e90612360565b60405180910390fd5b6106a18383610f09565b505050565b6106b76106b1610f01565b82610fc2565b6106f6576040517f08c379a00000000000000000000000000000000000000000000000000000000081526004016106ed90612440565b60405180910390fd5b6107018383836110a0565b505050565b606060006107146007611307565b905060008167ffffffffffffffff811115610758577f4e487b7100000000000000000000000000000000000000000000000000000000600052604160045260246000fd5b60405190808252806020026020018201604052801561079157816020015b61077e611984565b8152602001906001900390816107765790505b50905060005b828111610827576107a781610e95565b156108145760006107b782610b76565b9050604051806040016040528083815260200182815250838381518110610807577f4e487b7100000000000000000000000000000000000000000000000000000000600052603260045260246000fd5b6020026020010181905250505b808061081f90612747565b915050610797565b50809250505090565b61084b83838360405180602001604052806000815250610b14565b505050565b6000806002600084815260200190815260200160002060009054906101000a900473ffffffffffffffffffffffffffffffffffffffff169050600073ffffffffffffffffffffffffffffffffffffffff168173ffffffffffffffffffffffffffffffffffffffff1614156108f9576040517f08c379a00000000000000000000000000000000000000000000000000000000081526004016108f0906123a0565b60405180910390fd5b80915050919050565b60008073ffffffffffffffffffffffffffffffffffffffff168273ffffffffffffffffffffffffffffffffffffffff161415610973576040517f08c379a000000000000000000000000000000000000000000000000000000000815260040161096a90612380565b60405180910390fd5b600360008373ffffffffffffffffffffffffffffffffffffffff1673ffffffffffffffffffffffffffffffffffffffff168152602001908152602001600020549050919050565b6109c2610f01565b73ffffffffffffffffffffffffffffffffffffffff166109e0610a42565b73ffffffffffffffffffffffffffffffffffffffff1614610a36576040517f08c379a0000000000000000000000000000000000000000000000000000000008152600401610a2d90612400565b60405180910390fd5b610a406000611315565b565b6000600660009054906101000a900473ffffffffffffffffffffffffffffffffffffffff16905090565b606060018054610a7b906126e4565b80601f0160208091040260200160405190810160405280929190818152602001828054610aa7906126e4565b8015610af45780601f10610ac957610100808354040283529160200191610af4565b820191906000526020600020905b815481529060010190602001808311610ad757829003601f168201915b5050505050905090565b610b10610b09610f01565b83836113db565b5050565b610b25610b1f610f01565b83610fc2565b610b64576040517f08c379a0000000000000000000000000000000000000000000000000000000008152600401610b5b90612440565b60405180910390fd5b610b7084848484611548565b50505050565b6060610b8182610e95565b610bc0576040517f08c379a0000000000000000000000000000000000000000000000000000000008152600401610bb790612460565b60405180910390fd5b6000600860008481526020019081526020016000208054610be0906126e4565b80601f0160208091040260200160405190810160405280929190818152602001828054610c0c906126e4565b8015610c595780601f10610c2e57610100808354040283529160200191610c59565b820191906000526020600020905b815481529060010190602001808311610c3c57829003601f168201915b5050505050905080915050919050565b600080610c766007611307565b9050610c8233826115a4565b610c8c818461177e565b610c9660076117aa565b80915050919050565b6000600560008473ffffffffffffffffffffffffffffffffffffffff1673ffffffffffffffffffffffffffffffffffffffff16815260200190815260200160002060008373ffffffffffffffffffffffffffffffffffffffff1673ffffffffffffffffffffffffffffffffffffffff16815260200190815260200160002060009054906101000a900460ff16905092915050565b610d3b610f01565b73ffffffffffffffffffffffffffffffffffffffff16610d59610a42565b73ffffffffffffffffffffffffffffffffffffffff1614610daf576040517f08c379a0000000000000000000000000000000000000000000000000000000008152600401610da690612400565b60405180910390fd5b600073ffffffffffffffffffffffffffffffffffffffff168173ffffffffffffffffffffffffffffffffffffffff161415610e1f576040517f08c379a0000000000000000000000000000000000000000000000000000000008152600401610e16906122a0565b60405180910390fd5b610e2881611315565b50565b60007f01ffc9a7000000000000000000000000000000000000000000000000000000007bffffffffffffffffffffffffffffffffffffffffffffffffffffffff1916827bffffffffffffffffffffffffffffffffffffffffffffffffffffffff1916149050919050565b60008073ffffffffffffffffffffffffffffffffffffffff166002600084815260200190815260200160002060009054906101000a900473ffffffffffffffffffffffffffffffffffffffff1673ffffffffffffffffffffffffffffffffffffffff1614159050919050565b600033905090565b816004600083815260200190815260200160002060006101000a81548173ffffffffffffffffffffffffffffffffffffffff021916908373ffffffffffffffffffffffffffffffffffffffff160217905550808273ffffffffffffffffffffffffffffffffffffffff16610f7c83610850565b73ffffffffffffffffffffffffffffffffffffffff167f8c5be1e5ebec7d5bd14f71427d1e84f3dd0314c0f7b2291e5b200ac8c7c3b92560405160405180910390a45050565b6000610fcd82610e95565b61100c576040517f08c379a000000000000000000000000000000000000000000000000000000000815260040161100390612340565b60405180910390fd5b600061101783610850565b90508073ffffffffffffffffffffffffffffffffffffffff168473ffffffffffffffffffffffffffffffffffffffff16148061105957506110588185610c9f565b5b8061109757508373ffffffffffffffffffffffffffffffffffffffff1661107f84610509565b73ffffffffffffffffffffffffffffffffffffffff16145b91505092915050565b8273ffffffffffffffffffffffffffffffffffffffff166110c082610850565b73ffffffffffffffffffffffffffffffffffffffff1614611116576040517f08c379a000000000000000000000000000000000000000000000000000000000815260040161110d906122c0565b60405180910390fd5b600073ffffffffffffffffffffffffffffffffffffffff168273ffffffffffffffffffffffffffffffffffffffff161415611186576040517f08c379a000000000000000000000000000000000000000000000000000000000815260040161117d90612300565b60405180910390fd5b6111918383836117c0565b61119c600082610f09565b6001600360008573ffffffffffffffffffffffffffffffffffffffff1673ffffffffffffffffffffffffffffffffffffffff16815260200190815260200160002060008282546111ec91906125fa565b925050819055506001600360008473ffffffffffffffffffffffffffffffffffffffff1673ffffffffffffffffffffffffffffffffffffffff168152602001908152602001600020600082825461124391906125a4565b92505081905550816002600083815260200190815260200160002060006101000a81548173ffffffffffffffffffffffffffffffffffffffff021916908373ffffffffffffffffffffffffffffffffffffffff160217905550808273ffffffffffffffffffffffffffffffffffffffff168473ffffffffffffffffffffffffffffffffffffffff167fddf252ad1be2c89b69c2b068fc378daa952ba7f163c4a11628f55a4df523b3ef60405160405180910390a46113028383836117c5565b505050565b600081600001549050919050565b6000600660009054906101000a900473ffffffffffffffffffffffffffffffffffffffff16905081600660006101000a81548173ffffffffffffffffffffffffffffffffffffffff021916908373ffffffffffffffffffffffffffffffffffffffff1602179055508173ffffffffffffffffffffffffffffffffffffffff168173ffffffffffffffffffffffffffffffffffffffff167f8be0079c531659141344cd1fd0a4f28419497f9722a3daafe3b4186f6b6457e060405160405180910390a35050565b8173ffffffffffffffffffffffffffffffffffffffff168373ffffffffffffffffffffffffffffffffffffffff16141561144a576040517f08c379a000000000000000000000000000000000000000000000000000000000815260040161144190612320565b60405180910390fd5b80600560008573ffffffffffffffffffffffffffffffffffffffff1673ffffffffffffffffffffffffffffffffffffffff16815260200190815260200160002060008473ffffffffffffffffffffffffffffffffffffffff1673ffffffffffffffffffffffffffffffffffffffff16815260200190815260200160002060006101000a81548160ff0219169083151502179055508173ffffffffffffffffffffffffffffffffffffffff168373ffffffffffffffffffffffffffffffffffffffff167f17307eab39ab6107e8899845ad3d59bd9653f200f220920489ca2b5937696c318360405161153b9190612243565b60405180910390a3505050565b6115538484846110a0565b61155f848484846117ca565b61159e576040517f08c379a000000000000000000000000000000000000000000000000000000000815260040161159590612280565b60405180910390fd5b50505050565b600073ffffffffffffffffffffffffffffffffffffffff168273ffffffffffffffffffffffffffffffffffffffff161415611614576040517f08c379a000000000000000000000000000000000000000000000000000000000815260040161160b906123c0565b60405180910390fd5b61161d81610e95565b1561165d576040517f08c379a0000000000000000000000000000000000000000000000000000000008152600401611654906122e0565b60405180910390fd5b611669600083836117c0565b6001600360008473ffffffffffffffffffffffffffffffffffffffff1673ffffffffffffffffffffffffffffffffffffffff16815260200190815260200160002060008282546116b991906125a4565b92505081905550816002600083815260200190815260200160002060006101000a81548173ffffffffffffffffffffffffffffffffffffffff021916908373ffffffffffffffffffffffffffffffffffffffff160217905550808273ffffffffffffffffffffffffffffffffffffffff16600073ffffffffffffffffffffffffffffffffffffffff167fddf252ad1be2c89b69c2b068fc378daa952ba7f163c4a11628f55a4df523b3ef60405160405180910390a461177a600083836117c5565b5050565b806008600084815260200190815260200160002090805190602001906117a592919061199e565b505050565b6001816000016000828254019250508190555050565b505050565b505050565b60006117eb8473ffffffffffffffffffffffffffffffffffffffff16611961565b15611954578373ffffffffffffffffffffffffffffffffffffffff1663150b7a02611814610f01565b8786866040518563ffffffff1660e01b815260040161183694939291906121d5565b602060405180830381600087803b15801561185057600080fd5b505af192505050801561188157506040513d601f19601f8201168201806040525081019061187e9190611d4a565b60015b611904573d80600081146118b1576040519150601f19603f3d011682016040523d82523d6000602084013e6118b6565b606091505b506000815114156118fc576040517f08c379a00000000000000000000000000000000000000000000000000000000081526004016118f390612280565b60405180910390fd5b805181602001fd5b63150b7a0260e01b7bffffffffffffffffffffffffffffffffffffffffffffffffffffffff1916817bffffffffffffffffffffffffffffffffffffffffffffffffffffffff191614915050611959565b600190505b949350505050565b6000808273ffffffffffffffffffffffffffffffffffffffff163b119050919050565b604051806040016040528060008152602001606081525090565b8280546119aa906126e4565b90600052602060002090601f0160209004810192826119cc5760008555611a13565b82601f106119e557805160ff1916838001178555611a13565b82800160010185558215611a13579182015b82811115611a125782518255916020019190600101906119f7565b5b509050611a209190611a24565b5090565b5b80821115611a3d576000816000905550600101611a25565b5090565b6000611a54611a4f846124c0565b61249b565b905082815260208101848484011115611a6c57600080fd5b611a778482856126a2565b509392505050565b6000611a92611a8d846124f1565b61249b565b905082815260208101848484011115611aaa57600080fd5b611ab58482856126a2565b509392505050565b600081359050611acc81612c60565b92915050565b600081359050611ae181612c77565b92915050565b600081359050611af681612c8e565b92915050565b600081519050611b0b81612c8e565b92915050565b600082601f830112611b2257600080fd5b8135611b32848260208601611a41565b91505092915050565b600082601f830112611b4c57600080fd5b8135611b5c848260208601611a7f565b91505092915050565b600081359050611b7481612ca5565b92915050565b600060208284031215611b8c57600080fd5b6000611b9a84828501611abd565b91505092915050565b60008060408385031215611bb657600080fd5b6000611bc485828601611abd565b9250506020611bd585828601611abd565b9150509250929050565b600080600060608486031215611bf457600080fd5b6000611c0286828701611abd565b9350506020611c1386828701611abd565b9250506040611c2486828701611b65565b9150509250925092565b60008060008060808587031215611c4457600080fd5b6000611c5287828801611abd565b9450506020611c6387828801611abd565b9350506040611c7487828801611b65565b925050606085013567ffffffffffffffff811115611c9157600080fd5b611c9d87828801611b11565b91505092959194509250565b60008060408385031215611cbc57600080fd5b6000611cca85828601611abd565b9250506020611cdb85828601611ad2565b9150509250929050565b60008060408385031215611cf857600080fd5b6000611d0685828601611abd565b9250506020611d1785828601611b65565b9150509250929050565b600060208284031215611d3357600080fd5b6000611d4184828501611ae7565b91505092915050565b600060208284031215611d5c57600080fd5b6000611d6a84828501611afc565b91505092915050565b600060208284031215611d8557600080fd5b600082013567ffffffffffffffff811115611d9f57600080fd5b611dab84828501611b3b565b91505092915050565b600060208284031215611dc657600080fd5b6000611dd484828501611b65565b91505092915050565b6000611de9838361215f565b905092915050565b611dfa8161262e565b82525050565b6000611e0b82612532565b611e158185612560565b935083602082028501611e2785612522565b8060005b85811015611e635784840389528151611e448582611ddd565b9450611e4f83612553565b925060208a01995050600181019050611e2b565b50829750879550505050505092915050565b611e7e81612640565b82525050565b6000611e8f8261253d565b611e998185612571565b9350611ea98185602086016126b1565b611eb28161281d565b840191505092915050565b6000611ec882612548565b611ed28185612582565b9350611ee28185602086016126b1565b611eeb8161281d565b840191505092915050565b6000611f0182612548565b611f0b8185612593565b9350611f1b8185602086016126b1565b611f248161281d565b840191505092915050565b6000611f3c603283612593565b9150611f478261282e565b604082019050919050565b6000611f5f602683612593565b9150611f6a8261287d565b604082019050919050565b6000611f82602583612593565b9150611f8d826128cc565b604082019050919050565b6000611fa5601c83612593565b9150611fb08261291b565b602082019050919050565b6000611fc8602483612593565b9150611fd382612944565b604082019050919050565b6000611feb601983612593565b9150611ff682612993565b602082019050919050565b600061200e602c83612593565b9150612019826129bc565b604082019050919050565b6000612031603883612593565b915061203c82612a0b565b604082019050919050565b6000612054602a83612593565b915061205f82612a5a565b604082019050919050565b6000612077602983612593565b915061208282612aa9565b604082019050919050565b600061209a602083612593565b91506120a582612af8565b602082019050919050565b60006120bd602c83612593565b91506120c882612b21565b604082019050919050565b60006120e0602083612593565b91506120eb82612b70565b602082019050919050565b6000612103602183612593565b915061210e82612b99565b604082019050919050565b6000612126603183612593565b915061213182612be8565b604082019050919050565b6000612149601883612593565b915061215482612c37565b602082019050919050565b6000604083016000830151612177600086018261219c565b506020830151848203602086015261218f8282611ebd565b9150508091505092915050565b6121a581612698565b82525050565b6121b481612698565b82525050565b60006020820190506121cf6000830184611df1565b92915050565b60006080820190506121ea6000830187611df1565b6121f76020830186611df1565b61220460408301856121ab565b81810360608301526122168184611e84565b905095945050505050565b6000602082019050818103600083015261223b8184611e00565b905092915050565b60006020820190506122586000830184611e75565b92915050565b600060208201905081810360008301526122788184611ef6565b905092915050565b6000602082019050818103600083015261229981611f2f565b9050919050565b600060208201905081810360008301526122b981611f52565b9050919050565b600060208201905081810360008301526122d981611f75565b9050919050565b600060208201905081810360008301526122f981611f98565b9050919050565b6000602082019050818103600083015261231981611fbb565b9050919050565b6000602082019050818103600083015261233981611fde565b9050919050565b6000602082019050818103600083015261235981612001565b9050919050565b6000602082019050818103600083015261237981612024565b9050919050565b6000602082019050818103600083015261239981612047565b9050919050565b600060208201905081810360008301526123b98161206a565b9050919050565b600060208201905081810360008301526123d98161208d565b9050919050565b600060208201905081810360008301526123f9816120b0565b9050919050565b60006020820190508181036000830152612419816120d3565b9050919050565b60006020820190508181036000830152612439816120f6565b9050919050565b6000602082019050818103600083015261245981612119565b9050919050565b600060208201905081810360008301526124798161213c565b9050919050565b600060208201905061249560008301846121ab565b92915050565b60006124a56124b6565b90506124b18282612716565b919050565b6000604051905090565b600067ffffffffffffffff8211156124db576124da6127ee565b5b6124e48261281d565b9050602081019050919050565b600067ffffffffffffffff82111561250c5761250b6127ee565b5b6125158261281d565b9050602081019050919050565b6000819050602082019050919050565b600081519050919050565b600081519050919050565b600081519050919050565b6000602082019050919050565b600082825260208201905092915050565b600082825260208201905092915050565b600082825260208201905092915050565b600082825260208201905092915050565b60006125af82612698565b91506125ba83612698565b9250827fffffffffffffffffffffffffffffffffffffffffffffffffffffffffffffffff038211156125ef576125ee612790565b5b828201905092915050565b600061260582612698565b915061261083612698565b92508282101561262357612622612790565b5b828203905092915050565b600061263982612678565b9050919050565b60008115159050919050565b60007fffffffff0000000000000000000000000000000000000000000000000000000082169050919050565b600073ffffffffffffffffffffffffffffffffffffffff82169050919050565b6000819050919050565b82818337600083830152505050565b60005b838110156126cf5780820151818401526020810190506126b4565b838111156126de576000848401525b50505050565b600060028204905060018216806126fc57607f821691505b602082108114156127105761270f6127bf565b5b50919050565b61271f8261281d565b810181811067ffffffffffffffff8211171561273e5761273d6127ee565b5b80604052505050565b600061275282612698565b91507fffffffffffffffffffffffffffffffffffffffffffffffffffffffffffffffff82141561278557612784612790565b5b600182019050919050565b7f4e487b7100000000000000000000000000000000000000000000000000000000600052601160045260246000fd5b7f4e487b7100000000000000000000000000000000000000000000000000000000600052602260045260246000fd5b7f4e487b7100000000000000000000000000000000000000000000000000000000600052604160045260246000fd5b6000601f19601f8301169050919050565b7f4552433732313a207472616e7366657220746f206e6f6e20455243373231526560008201527f63656976657220696d706c656d656e7465720000000000000000000000000000602082015250565b7f4f776e61626c653a206e6577206f776e657220697320746865207a65726f206160008201527f6464726573730000000000000000000000000000000000000000000000000000602082015250565b7f4552433732313a207472616e736665722066726f6d20696e636f72726563742060008201527f6f776e6572000000000000000000000000000000000000000000000000000000602082015250565b7f4552433732313a20746f6b656e20616c7265616479206d696e74656400000000600082015250565b7f4552433732313a207472616e7366657220746f20746865207a65726f2061646460008201527f7265737300000000000000000000000000000000000000000000000000000000602082015250565b7f4552433732313a20617070726f766520746f2063616c6c657200000000000000600082015250565b7f4552433732313a206f70657261746f7220717565727920666f72206e6f6e657860008201527f697374656e7420746f6b656e0000000000000000000000000000000000000000602082015250565b7f4552433732313a20617070726f76652063616c6c6572206973206e6f74206f7760008201527f6e6572206e6f7220617070726f76656420666f7220616c6c0000000000000000602082015250565b7f4552433732313a2062616c616e636520717565727920666f7220746865207a6560008201527f726f206164647265737300000000000000000000000000000000000000000000602082015250565b7f4552433732313a206f776e657220717565727920666f72206e6f6e657869737460008201527f656e7420746f6b656e0000000000000000000000000000000000000000000000602082015250565b7f4552433732313a206d696e7420746f20746865207a65726f2061646472657373600082015250565b7f4552433732313a20617070726f76656420717565727920666f72206e6f6e657860008201527f697374656e7420746f6b656e0000000000000000000000000000000000000000602082015250565b7f4f776e61626c653a2063616c6c6572206973206e6f7420746865206f776e6572600082015250565b7f4552433732313a20617070726f76616c20746f2063757272656e74206f776e6560008201527f7200000000000000000000000000000000000000000000000000000000000000602082015250565b7f4552433732313a207472616e736665722063616c6c6572206973206e6f74206f60008201527f776e6572206e6f7220617070726f766564000000000000000000000000000000602082015250565b7f555249206e6f74206578697374206f6e20746861742049440000000000000000600082015250565b612c698161262e565b8114612c7457600080fd5b50565b612c8081612640565b8114612c8b57600080fd5b50565b612c978161264c565b8114612ca257600080fd5b50565b612cae81612698565b8114612cb957600080fd5b5056fea26469706673582212206757af2c52359de7a46d2aa1620ee572f48c525ac32fad2035f468ccbdd472b364736f6c63430008040033",
  "linkReferences": {},
  "deployedLinkReferences": {}
}